{
  "contractName": "ManualRegistry",
  "abi": [
    {
      "anonymous": false,
      "inputs": [
        {
          "indexed": false,
          "internalType": "string",
          "name": "manualId",
          "type": "string"
        },
        {
          "indexed": false,
          "internalType": "address",
          "name": "user",
          "type": "address"
        }
      ],
      "name": "AccessGranted",
      "type": "event"
    },
    {
      "anonymous": false,
      "inputs": [
        {
          "indexed": false,
          "internalType": "string",
          "name": "manualId",
          "type": "string"
        },
        {
          "indexed": false,
          "internalType": "string",
          "name": "contentCID",
          "type": "string"
        },
        {
          "indexed": false,
          "internalType": "string",
          "name": "embeddingsCID",
          "type": "string"
        }
      ],
      "name": "ManualUploaded",
      "type": "event"
    },
    {
      "inputs": [
        {
          "internalType": "string",
          "name": "",
          "type": "string"
        }
      ],
      "name": "manuals",
      "outputs": [
        {
          "internalType": "string",
          "name": "contentCID",
          "type": "string"
        },
        {
          "internalType": "string",
          "name": "embeddingsCID",
          "type": "string"
        },
        {
          "internalType": "uint256",
          "name": "version",
          "type": "uint256"
        },
        {
          "internalType": "address",
          "name": "owner",
          "type": "address"
        },
        {
          "internalType": "bool",
          "name": "isActive",
          "type": "bool"
        }
      ],
      "stateMutability": "view",
      "type": "function",
      "constant": true
    },
    {
      "inputs": [
        {
          "internalType": "string",
          "name": "manualId",
          "type": "string"
        },
        {
          "internalType": "string",
          "name": "contentCID",
          "type": "string"
        },
        {
          "internalType": "string",
          "name": "embeddingsCID",
          "type": "string"
        },
        {
          "internalType": "uint256",
          "name": "version",
          "type": "uint256"
        }
      ],
      "name": "uploadManual",
      "outputs": [],
      "stateMutability": "nonpayable",
      "type": "function"
    },
    {
      "inputs": [
        {
          "internalType": "string",
          "name": "manualId",
          "type": "string"
        },
        {
          "internalType": "address",
          "name": "user",
          "type": "address"
        }
      ],
      "name": "grantAccess",
      "outputs": [],
      "stateMutability": "nonpayable",
      "type": "function"
    },
    {
      "inputs": [
        {
          "internalType": "string",
          "name": "manualId",
          "type": "string"
        }
      ],
      "name": "getManualCIDs",
      "outputs": [
        {
          "internalType": "string",
          "name": "",
          "type": "string"
        },
        {
          "internalType": "string",
          "name": "",
          "type": "string"
        }
      ],
      "stateMutability": "view",
      "type": "function",
      "constant": true
    }
  ],
  "bytecode": "0x608060405234801561000f575f80fd5b50610fbb8061001d5f395ff3fe608060405234801561000f575f80fd5b506004361061004a575f3560e01c80635e0fac521461004e578063a6997c061461007f578063ea55e5e8146100b3578063f37c215e146100cf575b5f80fd5b61006860048036038101906100639190610860565b6100eb565b604051610076929190610921565b60405180910390f35b61009960048036038101906100949190610860565b6102f1565b6040516100aa9594939291906109c7565b60405180910390f35b6100cd60048036038101906100c89190610a50565b610472565b005b6100e960048036038101906100e49190610b32565b6105b6565b005b6060805f836040516100fd9190610bc6565b90815260200160405180910390206004015f3373ffffffffffffffffffffffffffffffffffffffff1673ffffffffffffffffffffffffffffffffffffffff1681526020019081526020015f205f9054906101000a900460ff16610195576040517f08c379a000000000000000000000000000000000000000000000000000000000815260040161018c90610c26565b60405180910390fd5b5f836040516101a49190610bc6565b90815260200160405180910390205f015f846040516101c39190610bc6565b90815260200160405180910390206001018180546101e090610c71565b80601f016020809104026020016040519081016040528092919081815260200182805461020c90610c71565b80156102575780601f1061022e57610100808354040283529160200191610257565b820191905f5260205f20905b81548152906001019060200180831161023a57829003601f168201915b5050505050915080805461026a90610c71565b80601f016020809104026020016040519081016040528092919081815260200182805461029690610c71565b80156102e15780601f106102b8576101008083540402835291602001916102e1565b820191905f5260205f20905b8154815290600101906020018083116102c457829003601f168201915b5050505050905091509150915091565b5f818051602081018201805184825260208301602085012081835280955050505050505f91509050805f01805461032790610c71565b80601f016020809104026020016040519081016040528092919081815260200182805461035390610c71565b801561039e5780601f106103755761010080835404028352916020019161039e565b820191905f5260205f20905b81548152906001019060200180831161038157829003601f168201915b5050505050908060010180546103b390610c71565b80601f01602080910402602001604051908101604052809291908181526020018280546103df90610c71565b801561042a5780601f106104015761010080835404028352916020019161042a565b820191905f5260205f20905b81548152906001019060200180831161040d57829003601f168201915b505050505090806002015490806003015f9054906101000a900473ffffffffffffffffffffffffffffffffffffffff16908060030160149054906101000a900460ff16905085565b5f80856040516104829190610bc6565b9081526020016040518091039020905083815f0190816104a29190610e3e565b50828160010190816104b49190610e3e565b5081816002018190555033816003015f6101000a81548173ffffffffffffffffffffffffffffffffffffffff021916908373ffffffffffffffffffffffffffffffffffffffff16021790555060018160030160146101000a81548160ff0219169083151502179055506001816004015f3373ffffffffffffffffffffffffffffffffffffffff1673ffffffffffffffffffffffffffffffffffffffff1681526020019081526020015f205f6101000a81548160ff0219169083151502179055507fda2fea0af96ced2154fc9ee9ca983a4e8f9a9e3b665d9416225620cd710be0658585856040516105a793929190610f0d565b60405180910390a15050505050565b3373ffffffffffffffffffffffffffffffffffffffff165f836040516105dc9190610bc6565b90815260200160405180910390206003015f9054906101000a900473ffffffffffffffffffffffffffffffffffffffff1673ffffffffffffffffffffffffffffffffffffffff1614610663576040517f08c379a000000000000000000000000000000000000000000000000000000000815260040161065a90610c26565b60405180910390fd5b60015f836040516106749190610bc6565b90815260200160405180910390206004015f8373ffffffffffffffffffffffffffffffffffffffff1673ffffffffffffffffffffffffffffffffffffffff1681526020019081526020015f205f6101000a81548160ff0219169083151502179055507f780f596ecb91e1e030f57631a828b4c1f227615c1e11422248348930f6d2160c8282604051610707929190610f57565b60405180910390a15050565b5f604051905090565b5f80fd5b5f80fd5b5f80fd5b5f80fd5b5f601f19601f8301169050919050565b7f4e487b71000000000000000000000000000000000000000000000000000000005f52604160045260245ffd5b6107728261072c565b810181811067ffffffffffffffff821117156107915761079061073c565b5b80604052505050565b5f6107a3610713565b90506107af8282610769565b919050565b5f67ffffffffffffffff8211156107ce576107cd61073c565b5b6107d78261072c565b9050602081019050919050565b828183375f83830152505050565b5f6108046107ff846107b4565b61079a565b9050828152602081018484840111156108205761081f610728565b5b61082b8482856107e4565b509392505050565b5f82601f83011261084757610846610724565b5b81356108578482602086016107f2565b91505092915050565b5f602082840312156108755761087461071c565b5b5f82013567ffffffffffffffff81111561089257610891610720565b5b61089e84828501610833565b91505092915050565b5f81519050919050565b5f82825260208201905092915050565b5f5b838110156108de5780820151818401526020810190506108c3565b5f8484015250505050565b5f6108f3826108a7565b6108fd81856108b1565b935061090d8185602086016108c1565b6109168161072c565b840191505092915050565b5f6040820190508181035f83015261093981856108e9565b9050818103602083015261094d81846108e9565b90509392505050565b5f819050919050565b61096881610956565b82525050565b5f73ffffffffffffffffffffffffffffffffffffffff82169050919050565b5f6109978261096e565b9050919050565b6109a78161098d565b82525050565b5f8115159050919050565b6109c1816109ad565b82525050565b5f60a0820190508181035f8301526109df81886108e9565b905081810360208301526109f381876108e9565b9050610a02604083018661095f565b610a0f606083018561099e565b610a1c60808301846109b8565b9695505050505050565b610a2f81610956565b8114610a39575f80fd5b50565b5f81359050610a4a81610a26565b92915050565b5f805f8060808587031215610a6857610a6761071c565b5b5f85013567ffffffffffffffff811115610a8557610a84610720565b5b610a9187828801610833565b945050602085013567ffffffffffffffff811115610ab257610ab1610720565b5b610abe87828801610833565b935050604085013567ffffffffffffffff811115610adf57610ade610720565b5b610aeb87828801610833565b9250506060610afc87828801610a3c565b91505092959194509250565b610b118161098d565b8114610b1b575f80fd5b50565b5f81359050610b2c81610b08565b92915050565b5f8060408385031215610b4857610b4761071c565b5b5f83013567ffffffffffffffff811115610b6557610b64610720565b5b610b7185828601610833565b9250506020610b8285828601610b1e565b9150509250929050565b5f81905092915050565b5f610ba0826108a7565b610baa8185610b8c565b9350610bba8185602086016108c1565b80840191505092915050565b5f610bd18284610b96565b915081905092915050565b7f4e6f7420617574686f72697a65640000000000000000000000000000000000005f82015250565b5f610c10600e836108b1565b9150610c1b82610bdc565b602082019050919050565b5f6020820190508181035f830152610c3d81610c04565b9050919050565b7f4e487b71000000000000000000000000000000000000000000000000000000005f52602260045260245ffd5b5f6002820490506001821680610c8857607f821691505b602082108103610c9b57610c9a610c44565b5b50919050565b5f819050815f5260205f209050919050565b5f6020601f8301049050919050565b5f82821b905092915050565b5f60088302610cfd7fffffffffffffffffffffffffffffffffffffffffffffffffffffffffffffffff82610cc2565b610d078683610cc2565b95508019841693508086168417925050509392505050565b5f819050919050565b5f610d42610d3d610d3884610956565b610d1f565b610956565b9050919050565b5f819050919050565b610d5b83610d28565b610d6f610d6782610d49565b848454610cce565b825550505050565b5f90565b610d83610d77565b610d8e818484610d52565b505050565b5b81811015610db157610da65f82610d7b565b600181019050610d94565b5050565b601f821115610df657610dc781610ca1565b610dd084610cb3565b81016020851015610ddf578190505b610df3610deb85610cb3565b830182610d93565b50505b505050565b5f82821c905092915050565b5f610e165f1984600802610dfb565b1980831691505092915050565b5f610e2e8383610e07565b9150826002028217905092915050565b610e47826108a7565b67ffffffffffffffff811115610e6057610e5f61073c565b5b610e6a8254610c71565b610e75828285610db5565b5f60209050601f831160018114610ea6575f8415610e94578287015190505b610e9e8582610e23565b865550610f05565b601f198416610eb486610ca1565b5f5b82811015610edb57848901518255600182019150602085019450602081019050610eb6565b86831015610ef85784890151610ef4601f891682610e07565b8355505b6001600288020188555050505b505050505050565b5f6060820190508181035f830152610f2581866108e9565b90508181036020830152610f3981856108e9565b90508181036040830152610f4d81846108e9565b9050949350505050565b5f6040820190508181035f830152610f6f81856108e9565b9050610f7e602083018461099e565b939250505056fea264697066735822122001b43855fbbdf82894a5967ba25866e670a21b2d10ecb650fe0e0406f06f230564736f6c63430008150033",
  "immutableReferences": {},
  "source": "// SPDX-License-Identifier: MIT\npragma solidity ^0.8.0;\n\ncontract ManualRegistry {\n    struct Manual {\n        string contentCID;\n        string embeddingsCID;\n        uint256 version;\n        address owner;\n        bool isActive;\n        mapping(address => bool) authorizedUsers;\n    }\n    \n    mapping(string => Manual) public manuals;\n    \n    event ManualUploaded(string manualId, string contentCID, string embeddingsCID);\n    event AccessGranted(string manualId, address user);\n    \n    function uploadManual(\n        string memory manualId,\n        string memory contentCID,\n        string memory embeddingsCID,\n        uint256 version\n    ) public {\n        Manual storage manual = manuals[manualId];\n        manual.contentCID = contentCID;\n        manual.embeddingsCID = embeddingsCID;\n        manual.version = version;\n        manual.owner = msg.sender;\n        manual.isActive = true;\n        manual.authorizedUsers[msg.sender] = true;\n        \n        emit ManualUploaded(manualId, contentCID, embeddingsCID);\n    }\n    \n    function grantAccess(string memory manualId, address user) public {\n        require(manuals[manualId].owner == msg.sender, \"Not authorized\");\n        manuals[manualId].authorizedUsers[user] = true;\n        emit AccessGranted(manualId, user);\n    }\n    \n    function getManualCIDs(string memory manualId) public view returns (string memory, string memory) {\n        require(manuals[manualId].authorizedUsers[msg.sender], \"Not authorized\");\n        return (manuals[manualId].contentCID, manuals[manualId].embeddingsCID);\n    }\n}",
  "sourcePath": "/Users/A200309906/Documents/rnd/Personal/StoringEmbeddings-On-IPFS-SmartContractBlockchain-With-Lllamaindex/manual-contract/contracts/ManualRegistry.sol",
  "compiler": {
    "name": "solc",
    "version": "0.8.21+commit.d9974bed.Emscripten.clang"
  },
  "schemaVersion": "3.4.16",
  "updatedAt": "2025-02-02T17:55:57.166Z",
  "networkType": "ethereum",
  "devdoc": {
    "kind": "dev",
    "methods": {},
    "version": 1
  },
  "userdoc": {
    "kind": "user",
    "methods": {},
    "version": 1
  }
}